{
  "contractName": "ERC20",
  "abi": [
    {
      "inputs": [],
      "stateMutability": "nonpayable",
      "type": "constructor"
    },
    {
      "anonymous": false,
      "inputs": [
        {
          "indexed": true,
          "internalType": "address",
          "name": "from",
          "type": "address"
        },
        {
          "indexed": true,
          "internalType": "address",
          "name": "to",
          "type": "address"
        },
        {
          "indexed": false,
          "internalType": "uint256",
          "name": "amount",
          "type": "uint256"
        }
      ],
      "name": "Approval",
      "type": "event"
    },
    {
      "anonymous": false,
      "inputs": [
        {
          "indexed": true,
          "internalType": "address",
          "name": "from",
          "type": "address"
        },
        {
          "indexed": true,
          "internalType": "address",
          "name": "to",
          "type": "address"
        },
        {
          "indexed": false,
          "internalType": "uint256",
          "name": "amount",
          "type": "uint256"
        }
      ],
      "name": "Transfer",
      "type": "event"
    },
    {
      "anonymous": false,
      "inputs": [
        {
          "indexed": true,
          "internalType": "address",
          "name": "from",
          "type": "address"
        },
        {
          "indexed": false,
          "internalType": "uint256",
          "name": "amount",
          "type": "uint256"
        }
      ],
      "name": "_Transfer",
      "type": "event"
    },
    {
      "stateMutability": "payable",
      "type": "fallback",
      "payable": true
    },
    {
      "stateMutability": "payable",
      "type": "receive",
      "payable": true
    },
    {
      "inputs": [
        {
          "internalType": "address",
          "name": "account",
          "type": "address"
        },
        {
          "internalType": "uint256",
          "name": "amount",
          "type": "uint256"
        }
      ],
      "name": "mint",
      "outputs": [],
      "stateMutability": "nonpayable",
      "type": "function"
    },
    {
      "inputs": [
        {
          "internalType": "address",
          "name": "recepint",
          "type": "address"
        },
        {
          "internalType": "uint256",
          "name": "amount",
          "type": "uint256"
        }
      ],
      "name": "issueSalary",
      "outputs": [
        {
          "internalType": "bool",
          "name": "",
          "type": "bool"
        }
      ],
      "stateMutability": "nonpayable",
      "type": "function"
    },
    {
      "inputs": [],
      "name": "creditSalary",
      "outputs": [
        {
          "internalType": "bool",
          "name": "",
          "type": "bool"
        }
      ],
      "stateMutability": "nonpayable",
      "type": "function"
    },
    {
      "inputs": [],
      "name": "totalSupply",
      "outputs": [
        {
          "internalType": "uint256",
          "name": "",
          "type": "uint256"
        }
      ],
      "stateMutability": "view",
      "type": "function",
      "constant": true
    },
    {
      "inputs": [
        {
          "internalType": "address",
          "name": "account",
          "type": "address"
        }
      ],
      "name": "balanceOf",
      "outputs": [
        {
          "internalType": "uint256",
          "name": "",
          "type": "uint256"
        }
      ],
      "stateMutability": "view",
      "type": "function",
      "constant": true
    },
    {
      "inputs": [],
      "name": "purchaseTokens",
      "outputs": [],
      "stateMutability": "payable",
      "type": "function",
      "payable": true
    },
    {
      "inputs": [
        {
          "internalType": "uint256",
          "name": "newPrice",
          "type": "uint256"
        }
      ],
      "name": "adjustTokenPrice",
      "outputs": [],
      "stateMutability": "nonpayable",
      "type": "function"
    },
    {
      "inputs": [
        {
          "internalType": "address",
          "name": "recepint",
          "type": "address"
        },
        {
          "internalType": "uint256",
          "name": "amount",
          "type": "uint256"
        }
      ],
      "name": "transfer",
      "outputs": [
        {
          "internalType": "bool",
          "name": "",
          "type": "bool"
        }
      ],
      "stateMutability": "nonpayable",
      "type": "function"
    },
    {
      "inputs": [
        {
          "internalType": "address",
          "name": "spender",
          "type": "address"
        },
        {
          "internalType": "uint256",
          "name": "amount",
          "type": "uint256"
        }
      ],
      "name": "approve",
      "outputs": [
        {
          "internalType": "bool",
          "name": "",
          "type": "bool"
        }
      ],
      "stateMutability": "nonpayable",
      "type": "function"
    },
    {
      "inputs": [
        {
          "internalType": "address",
          "name": "approver",
          "type": "address"
        },
        {
          "internalType": "address",
          "name": "spender",
          "type": "address"
        }
      ],
      "name": "allowance",
      "outputs": [
        {
          "internalType": "uint256",
          "name": "",
          "type": "uint256"
        }
      ],
      "stateMutability": "view",
      "type": "function",
      "constant": true
    },
    {
      "inputs": [
        {
          "internalType": "address",
          "name": "from",
          "type": "address"
        },
        {
          "internalType": "address",
          "name": "to",
          "type": "address"
        },
        {
          "internalType": "uint256",
          "name": "amount",
          "type": "uint256"
        }
      ],
      "name": "transferFrom",
      "outputs": [
        {
          "internalType": "bool",
          "name": "",
          "type": "bool"
        }
      ],
      "stateMutability": "nonpayable",
      "type": "function"
    },
    {
      "inputs": [
        {
          "internalType": "uint256",
          "name": "_Rate",
          "type": "uint256"
        }
      ],
      "name": "ChangeConversion",
      "outputs": [],
      "stateMutability": "nonpayable",
      "type": "function"
    },
    {
      "inputs": [
        {
          "internalType": "address",
          "name": "NextOwner",
          "type": "address"
        }
      ],
      "name": "TransferOwnership",
      "outputs": [],
      "stateMutability": "nonpayable",
      "type": "function"
    },
    {
      "inputs": [
        {
          "internalType": "address",
          "name": "_Delegate",
          "type": "address"
        }
      ],
      "name": "DelegatePower",
      "outputs": [],
      "stateMutability": "nonpayable",
      "type": "function"
    },
    {
      "inputs": [
        {
          "internalType": "uint256",
          "name": "_Tokens",
          "type": "uint256"
        }
      ],
      "name": "ReturnTokens",
      "outputs": [
        {
          "internalType": "uint256",
          "name": "",
          "type": "uint256"
        }
      ],
      "stateMutability": "payable",
      "type": "function",
      "payable": true
    }
  ],
  "bytecode": "0x608060405260646004556064600a553480156200001b57600080fd5b5062030d4060028190555033600360006101000a81548173ffffffffffffffffffffffffffffffffffffffff021916908373ffffffffffffffffffffffffffffffffffffffff160217905550600254600080600360009054906101000a900473ffffffffffffffffffffffffffffffffffffffff1673ffffffffffffffffffffffffffffffffffffffff1673ffffffffffffffffffffffffffffffffffffffff1681526020019081526020016000208190555060028054620000de9190620000ea565b60058190555062000184565b6000620000f7826200014b565b915062000104836200014b565b9250817fffffffffffffffffffffffffffffffffffffffffffffffffffffffffffffffff048311821515161562000140576200013f62000155565b5b828202905092915050565b6000819050919050565b7f4e487b7100000000000000000000000000000000000000000000000000000000600052601160045260246000fd5b61245e80620001946000396000f3fe6080604052600436106100eb5760003560e01c806340c10f191161008a578063b23fd3bd11610059578063b23fd3bd14610308578063cd304a5d14610338578063cfaaa26614610361578063dd62ed3e1461038a576100f2565b806340c10f191461023c57806355b2f2d41461026557806370a082311461028e578063a9059cbb146102cb576100f2565b806318160ddd116100c657806318160ddd1461018d57806323b872dd146101b85780632cad00b6146101f55780633290ce2914610232576100f2565b8062fed26a146100fc57806302ba08f514610127578063095ea7b314610150576100f2565b366100f257005b6100fa6103c7565b005b34801561010857600080fd5b506101116105eb565b60405161011e919061200f565b60405180910390f35b34801561013357600080fd5b5061014e60048036038101906101499190611c3c565b6107d9565b005b34801561015c57600080fd5b5061017760048036038101906101729190611c00565b6108da565b604051610184919061200f565b60405180910390f35b34801561019957600080fd5b506101a2610a93565b6040516101af91906121ca565b60405180910390f35b3480156101c457600080fd5b506101df60048036038101906101da9190611bb1565b610a9d565b6040516101ec919061200f565b60405180910390f35b34801561020157600080fd5b5061021c60048036038101906102179190611c00565b610e0b565b604051610229919061200f565b60405180910390f35b61023a6103c7565b005b34801561024857600080fd5b50610263600480360381019061025e9190611c00565b61105c565b005b34801561027157600080fd5b5061028c60048036038101906102879190611c3c565b611293565b005b34801561029a57600080fd5b506102b560048036038101906102b09190611b4c565b61129d565b6040516102c291906121ca565b60405180910390f35b3480156102d757600080fd5b506102f260048036038101906102ed9190611c00565b6112e5565b6040516102ff919061200f565b60405180910390f35b610322600480360381019061031d9190611c3c565b611537565b60405161032f91906121ca565b60405180910390f35b34801561034457600080fd5b5061035f600480360381019061035a9190611b4c565b611749565b005b34801561036d57600080fd5b5061038860048036038101906103839190611b4c565b611859565b005b34801561039657600080fd5b506103b160048036038101906103ac9190611b75565b611a9b565b6040516103be91906121ca565b60405180910390f35b600360009054906101000a900473ffffffffffffffffffffffffffffffffffffffff1673ffffffffffffffffffffffffffffffffffffffff163373ffffffffffffffffffffffffffffffffffffffff161415610458576040517f08c379a000000000000000000000000000000000000000000000000000000000815260040161044f906120ca565b60405180910390fd5b670de0b6b3a76400003410156104a3576040517f08c379a000000000000000000000000000000000000000000000000000000000815260040161049a9061212a565b60405180910390fd5b600073ffffffffffffffffffffffffffffffffffffffff163373ffffffffffffffffffffffffffffffffffffffff1614156104dd57600080fd5b600454670de0b6b3a7640000346104f4919061224c565b6104fe919061227d565b6000803373ffffffffffffffffffffffffffffffffffffffff1673ffffffffffffffffffffffffffffffffffffffff168152602001908152602001600020600082825461054b91906121f6565b92505081905550600454670de0b6b3a764000034610569919061224c565b610573919061227d565b600080600360009054906101000a900473ffffffffffffffffffffffffffffffffffffffff1673ffffffffffffffffffffffffffffffffffffffff1673ffffffffffffffffffffffffffffffffffffffff16815260200190815260200160002060008282546105e291906122d7565b92505081905550565b600080600654623761e76105ff91906121f6565b9050804211801561061257506000600654115b610651576040517f08c379a0000000000000000000000000000000000000000000000000000000008152600401610648906120aa565b60405180910390fd5b60005b6007805490508110156107d057600860006007838154811061069f577f4e487b7100000000000000000000000000000000000000000000000000000000600052603260045260246000fd5b9060005260206000200160009054906101000a900473ffffffffffffffffffffffffffffffffffffffff1673ffffffffffffffffffffffffffffffffffffffff1673ffffffffffffffffffffffffffffffffffffffff1681526020019081526020016000205460008060078481548110610742577f4e487b7100000000000000000000000000000000000000000000000000000000600052603260045260246000fd5b9060005260206000200160009054906101000a900473ffffffffffffffffffffffffffffffffffffffff1673ffffffffffffffffffffffffffffffffffffffff1673ffffffffffffffffffffffffffffffffffffffff16815260200190815260200160002060008282546107b691906121f6565b9250508190555080806107c890612353565b915050610654565b50600191505090565b338073ffffffffffffffffffffffffffffffffffffffff16600360009054906101000a900473ffffffffffffffffffffffffffffffffffffffff1673ffffffffffffffffffffffffffffffffffffffff16148061088357508073ffffffffffffffffffffffffffffffffffffffff16600960009054906101000a900473ffffffffffffffffffffffffffffffffffffffff1673ffffffffffffffffffffffffffffffffffffffff16145b61088c57600080fd5b600082116108cf576040517f08c379a00000000000000000000000000000000000000000000000000000000081526004016108c69061214a565b60405180910390fd5b81600a819055505050565b60008073ffffffffffffffffffffffffffffffffffffffff163373ffffffffffffffffffffffffffffffffffffffff16141580156109455750600073ffffffffffffffffffffffffffffffffffffffff168373ffffffffffffffffffffffffffffffffffffffff1614155b61094e57600080fd5b60008211610991576040517f08c379a00000000000000000000000000000000000000000000000000000000081526004016109889061208a565b60405180910390fd5b81600160003373ffffffffffffffffffffffffffffffffffffffff1673ffffffffffffffffffffffffffffffffffffffff16815260200190815260200160002060008573ffffffffffffffffffffffffffffffffffffffff1673ffffffffffffffffffffffffffffffffffffffff1681526020019081526020016000206000828254610a1d91906121f6565b925050819055508273ffffffffffffffffffffffffffffffffffffffff163373ffffffffffffffffffffffffffffffffffffffff167f8c5be1e5ebec7d5bd14f71427d1e84f3dd0314c0f7b2291e5b200ac8c7c3b92584604051610a8191906121ca565b60405180910390a36001905092915050565b6000600254905090565b60008060008573ffffffffffffffffffffffffffffffffffffffff1673ffffffffffffffffffffffffffffffffffffffff168152602001908152602001600020548211158015610b695750600160008573ffffffffffffffffffffffffffffffffffffffff1673ffffffffffffffffffffffffffffffffffffffff16815260200190815260200160002060003373ffffffffffffffffffffffffffffffffffffffff1673ffffffffffffffffffffffffffffffffffffffff168152602001908152602001600020548211155b610ba8576040517f08c379a0000000000000000000000000000000000000000000000000000000008152600401610b9f906121aa565b60405180910390fd5b600073ffffffffffffffffffffffffffffffffffffffff168473ffffffffffffffffffffffffffffffffffffffff1614158015610c125750600073ffffffffffffffffffffffffffffffffffffffff168373ffffffffffffffffffffffffffffffffffffffff1614155b610c1b57600080fd5b60008211610c5e576040517f08c379a0000000000000000000000000000000000000000000000000000000008152600401610c559061208a565b60405180910390fd5b816000808573ffffffffffffffffffffffffffffffffffffffff1673ffffffffffffffffffffffffffffffffffffffff1681526020019081526020016000206000828254610cac91906121f6565b92505081905550816000808673ffffffffffffffffffffffffffffffffffffffff1673ffffffffffffffffffffffffffffffffffffffff1681526020019081526020016000206000828254610d0191906122d7565b9250508190555081600160008673ffffffffffffffffffffffffffffffffffffffff1673ffffffffffffffffffffffffffffffffffffffff16815260200190815260200160002060003373ffffffffffffffffffffffffffffffffffffffff1673ffffffffffffffffffffffffffffffffffffffff1681526020019081526020016000206000828254610d9491906122d7565b925050819055508273ffffffffffffffffffffffffffffffffffffffff168473ffffffffffffffffffffffffffffffffffffffff167fddf252ad1be2c89b69c2b068fc378daa952ba7f163c4a11628f55a4df523b3ef84604051610df891906121ca565b60405180910390a3600190509392505050565b6000816000803373ffffffffffffffffffffffffffffffffffffffff1673ffffffffffffffffffffffffffffffffffffffff168152602001908152602001600020541015610e8e576040517f08c379a0000000000000000000000000000000000000000000000000000000008152600401610e859061218a565b60405180910390fd5b600073ffffffffffffffffffffffffffffffffffffffff163373ffffffffffffffffffffffffffffffffffffffff1614158015610ef85750600073ffffffffffffffffffffffffffffffffffffffff168373ffffffffffffffffffffffffffffffffffffffff1614155b610f0157600080fd5b60008211610f44576040517f08c379a0000000000000000000000000000000000000000000000000000000008152600401610f3b9061208a565b60405180910390fd5b816000803373ffffffffffffffffffffffffffffffffffffffff1673ffffffffffffffffffffffffffffffffffffffff1681526020019081526020016000206000828254610f9291906122d7565b9250508190555081600860008573ffffffffffffffffffffffffffffffffffffffff1673ffffffffffffffffffffffffffffffffffffffff1681526020019081526020016000206000828254610fe891906121f6565b925050819055506007839080600181540180825580915050600190039060005260206000200160009091909190916101000a81548173ffffffffffffffffffffffffffffffffffffffff021916908373ffffffffffffffffffffffffffffffffffffffff1602179055506001905092915050565b60008160025461106c91906121f6565b9050600360009054906101000a900473ffffffffffffffffffffffffffffffffffffffff1673ffffffffffffffffffffffffffffffffffffffff163373ffffffffffffffffffffffffffffffffffffffff16146110fe576040517f08c379a00000000000000000000000000000000000000000000000000000000081526004016110f59061204a565b60405180910390fd5b600073ffffffffffffffffffffffffffffffffffffffff168373ffffffffffffffffffffffffffffffffffffffff16141561116e576040517f08c379a00000000000000000000000000000000000000000000000000000000081526004016111659061216a565b60405180910390fd5b6005548111156111b3576040517f08c379a00000000000000000000000000000000000000000000000000000000081526004016111aa906120ea565b60405180910390fd5b81600260008282546111c591906121f6565b92505081905550816000808573ffffffffffffffffffffffffffffffffffffffff1673ffffffffffffffffffffffffffffffffffffffff168152602001908152602001600020600082825461121a91906121f6565b92505081905550426006819055508273ffffffffffffffffffffffffffffffffffffffff16600073ffffffffffffffffffffffffffffffffffffffff167fddf252ad1be2c89b69c2b068fc378daa952ba7f163c4a11628f55a4df523b3ef8460405161128691906121ca565b60405180910390a3505050565b8060048190555050565b60008060008373ffffffffffffffffffffffffffffffffffffffff1673ffffffffffffffffffffffffffffffffffffffff168152602001908152602001600020549050919050565b6000816000803373ffffffffffffffffffffffffffffffffffffffff1673ffffffffffffffffffffffffffffffffffffffff168152602001908152602001600020541015611368576040517f08c379a000000000000000000000000000000000000000000000000000000000815260040161135f9061218a565b60405180910390fd5b600073ffffffffffffffffffffffffffffffffffffffff163373ffffffffffffffffffffffffffffffffffffffff16141580156113d25750600073ffffffffffffffffffffffffffffffffffffffff168373ffffffffffffffffffffffffffffffffffffffff1614155b6113db57600080fd5b6000821161141e576040517f08c379a00000000000000000000000000000000000000000000000000000000081526004016114159061208a565b60405180910390fd5b816000803373ffffffffffffffffffffffffffffffffffffffff1673ffffffffffffffffffffffffffffffffffffffff168152602001908152602001600020600082825461146c91906122d7565b92505081905550816000808573ffffffffffffffffffffffffffffffffffffffff1673ffffffffffffffffffffffffffffffffffffffff16815260200190815260200160002060008282546114c191906121f6565b925050819055508273ffffffffffffffffffffffffffffffffffffffff163373ffffffffffffffffffffffffffffffffffffffff167fddf252ad1be2c89b69c2b068fc378daa952ba7f163c4a11628f55a4df523b3ef8460405161152591906121ca565b60405180910390a36001905092915050565b6000816000803373ffffffffffffffffffffffffffffffffffffffff1673ffffffffffffffffffffffffffffffffffffffff1681526020019081526020016000205410156115ba576040517f08c379a00000000000000000000000000000000000000000000000000000000081526004016115b19061210a565b60405180910390fd5b6000670de0b6b3a7640000600a54846115d3919061224c565b6115dd919061227d565b905082600080600360009054906101000a900473ffffffffffffffffffffffffffffffffffffffff1673ffffffffffffffffffffffffffffffffffffffff1673ffffffffffffffffffffffffffffffffffffffff168152602001908152602001600020600082825461164f91906121f6565b92505081905550826000803373ffffffffffffffffffffffffffffffffffffffff1673ffffffffffffffffffffffffffffffffffffffff16815260200190815260200160002060008282546116a491906122d7565b925050819055503373ffffffffffffffffffffffffffffffffffffffff166108fc829081150290604051600060405180830381858888f193505050501580156116f1573d6000803e3d6000fd5b503373ffffffffffffffffffffffffffffffffffffffff167fc5f1404b6d4e2529552043cb76d418c2a31babf66e1348160be4d6a2316f624d8260405161173891906121ca565b60405180910390a280915050919050565b338073ffffffffffffffffffffffffffffffffffffffff16600360009054906101000a900473ffffffffffffffffffffffffffffffffffffffff1673ffffffffffffffffffffffffffffffffffffffff16146117a457600080fd5b600073ffffffffffffffffffffffffffffffffffffffff168273ffffffffffffffffffffffffffffffffffffffff161415611814576040517f08c379a000000000000000000000000000000000000000000000000000000000815260040161180b9061206a565b60405180910390fd5b81600960006101000a81548173ffffffffffffffffffffffffffffffffffffffff021916908373ffffffffffffffffffffffffffffffffffffffff1602179055505050565b338073ffffffffffffffffffffffffffffffffffffffff16600360009054906101000a900473ffffffffffffffffffffffffffffffffffffffff1673ffffffffffffffffffffffffffffffffffffffff16146118b457600080fd5b600073ffffffffffffffffffffffffffffffffffffffff168273ffffffffffffffffffffffffffffffffffffffff161415611924576040517f08c379a000000000000000000000000000000000000000000000000000000000815260040161191b9061202a565b60405180910390fd5b6000806000600360009054906101000a900473ffffffffffffffffffffffffffffffffffffffff1673ffffffffffffffffffffffffffffffffffffffff1673ffffffffffffffffffffffffffffffffffffffff168152602001908152602001600020549050806000808573ffffffffffffffffffffffffffffffffffffffff1673ffffffffffffffffffffffffffffffffffffffff16815260200190815260200160002060008282546119d791906121f6565b9250508190555080600080600360009054906101000a900473ffffffffffffffffffffffffffffffffffffffff1673ffffffffffffffffffffffffffffffffffffffff1673ffffffffffffffffffffffffffffffffffffffff1681526020019081526020016000206000828254611a4e91906122d7565b9250508190555082600360006101000a81548173ffffffffffffffffffffffffffffffffffffffff021916908373ffffffffffffffffffffffffffffffffffffffff160217905550505050565b6000600160008473ffffffffffffffffffffffffffffffffffffffff1673ffffffffffffffffffffffffffffffffffffffff16815260200190815260200160002060008373ffffffffffffffffffffffffffffffffffffffff1673ffffffffffffffffffffffffffffffffffffffff16815260200190815260200160002054905092915050565b600081359050611b31816123fa565b92915050565b600081359050611b4681612411565b92915050565b600060208284031215611b5e57600080fd5b6000611b6c84828501611b22565b91505092915050565b60008060408385031215611b8857600080fd5b6000611b9685828601611b22565b9250506020611ba785828601611b22565b9150509250929050565b600080600060608486031215611bc657600080fd5b6000611bd486828701611b22565b9350506020611be586828701611b22565b9250506040611bf686828701611b37565b9150509250925092565b60008060408385031215611c1357600080fd5b6000611c2185828601611b22565b9250506020611c3285828601611b37565b9150509250929050565b600060208284031215611c4e57600080fd5b6000611c5c84828501611b37565b91505092915050565b611c6e8161231d565b82525050565b6000611c81600d836121e5565b91507f57726f6e672061646472657373000000000000000000000000000000000000006000830152602082019050919050565b6000611cc16016836121e5565b91507f796f7520617265206e6f7420617574686f72697a6564000000000000000000006000830152602082019050919050565b6000611d01600f836121e5565b91507f496e76616c6964206164647265737300000000000000000000000000000000006000830152602082019050919050565b6000611d41601f836121e5565b91507f546f656b656e2073686f756c642062652067726561746572207468616e2030006000830152602082019050919050565b6000611d816028836121e5565b91507f4552524f523a20576169743a205472616e736665722064617465206e6f74207260008301527f65616368656420200000000000000000000000000000000000000000000000006020830152604082019050919050565b6000611de7601c836121e5565b91507f4f776e65722063616e6e6f7420707572636861736520746f6b656e73000000006000830152602082019050919050565b6000611e276020836121e5565b91507f204d6178696d756d20546f6b656e206361702069732062726561636865642e206000830152602082019050919050565b6000611e67602a836121e5565b91507f596f752068617665206e6f2062616c616e636520746f6b656e7320696e20796f60008301527f7572206163636f756e74000000000000000000000000000000000000000000006020830152604082019050919050565b6000611ecd6019836121e5565b91507f56616c75652073686f756c6420626520696e20657468657273000000000000006000830152602082019050919050565b6000611f0d6015836121e5565b91507f4d75737420656e74657220736f6d652076616c756500000000000000000000006000830152602082019050919050565b6000611f4d601c836121e5565b91507f20756e61757468656e746963206d696e74696e672061646472657373000000006000830152602082019050919050565b6000611f8d601a836121e5565b91507f796f7520646f6e74206861766520656e6f676820746f656b6e730000000000006000830152602082019050919050565b6000611fcd601b836121e5565b91507f62616c616e6365204c6f77206f72206e6f7420617070726f76656400000000006000830152602082019050919050565b61200981612349565b82525050565b60006020820190506120246000830184611c65565b92915050565b6000602082019050818103600083015261204381611c74565b9050919050565b6000602082019050818103600083015261206381611cb4565b9050919050565b6000602082019050818103600083015261208381611cf4565b9050919050565b600060208201905081810360008301526120a381611d34565b9050919050565b600060208201905081810360008301526120c381611d74565b9050919050565b600060208201905081810360008301526120e381611dda565b9050919050565b6000602082019050818103600083015261210381611e1a565b9050919050565b6000602082019050818103600083015261212381611e5a565b9050919050565b6000602082019050818103600083015261214381611ec0565b9050919050565b6000602082019050818103600083015261216381611f00565b9050919050565b6000602082019050818103600083015261218381611f40565b9050919050565b600060208201905081810360008301526121a381611f80565b9050919050565b600060208201905081810360008301526121c381611fc0565b9050919050565b60006020820190506121df6000830184612000565b92915050565b600082825260208201905092915050565b600061220182612349565b915061220c83612349565b9250827fffffffffffffffffffffffffffffffffffffffffffffffffffffffffffffffff038211156122415761224061239c565b5b828201905092915050565b600061225782612349565b915061226283612349565b925082612272576122716123cb565b5b828204905092915050565b600061228882612349565b915061229383612349565b9250817fffffffffffffffffffffffffffffffffffffffffffffffffffffffffffffffff04831182151516156122cc576122cb61239c565b5b828202905092915050565b60006122e282612349565b91506122ed83612349565b925082821015612300576122ff61239c565b5b828203905092915050565b600061231682612329565b9050919050565b60008115159050919050565b600073ffffffffffffffffffffffffffffffffffffffff82169050919050565b6000819050919050565b600061235e82612349565b91507fffffffffffffffffffffffffffffffffffffffffffffffffffffffffffffffff8214156123915761239061239c565b5b600182019050919050565b7f4e487b7100000000000000000000000000000000000000000000000000000000600052601160045260246000fd5b7f4e487b7100000000000000000000000000000000000000000000000000000000600052601260045260246000fd5b6124038161230b565b811461240e57600080fd5b50565b61241a81612349565b811461242557600080fd5b5056fea2646970667358221220378edc796147b4a7c8d4a64c1cae5d974fa6a3616d8df217920467b65502057064736f6c63430008000033",
  "immutableReferences": {},
  "source": "// SPDX-License-Identifier: MIT \r\npragma solidity ^0.8.0;\r\n\r\ninterface IERC20 {\r\n    function balanceOf(address account) external view returns(uint256);\r\n    function transfer(address recepint, uint256 amount) external returns(bool);\r\n    function approve(address spender, uint256 amount) external returns(bool);\r\n    function allowance(address recepint, address spender) external view returns(uint256);\r\n    function transferFrom(address from, address to, uint amount) external returns(bool);\r\n    function totalSupply() external view returns(uint256);\r\n    event Transfer(address indexed from, address indexed to, uint256 amount);\r\n    event Approval(address indexed from, address indexed to, uint256 amount);\r\n    event _Transfer(address indexed from,  uint256 amount);\r\n}\r\n\r\ncontract ERC20 is IERC20 {\r\n    \r\n    mapping (address => uint256) private balances;\r\n    mapping (address => mapping(address => uint256)) private allowed;\r\n    uint256 Supply;\r\n    address owner1;\r\n    uint256 priceToken = 100;\r\n    uint256 capToken ; // assignment 3b: part 1\r\n    uint mintedOn;    // assignment 3b: part 2\r\n    \r\n    \r\n    constructor() {\r\n        Supply = 100000*2;\r\n        owner1 = msg.sender;\r\n        balances[owner1] = Supply;\r\n        capToken = Supply * 2 ; // assignment 3b: part 1\r\n        \r\n    }\r\n    \r\n    //................assignment 3b: part: 1 ...........................\r\n     function mint(address account, uint256 amount)  external virtual {\r\n        uint256 _Supply = Supply + amount;\r\n        require (msg.sender == owner1, \"you are not authorized\");\r\n        require(account != address(0), \" unauthentic minting address\");\r\n        require(_Supply <= capToken, \" Maximum Token cap is breached. \");\r\n        \r\n        Supply += amount;\r\n        balances[account] += amount;\r\n         mintedOn = block.timestamp;  // assignment 3b: part 2\r\n        \r\n        \r\n        emit Transfer(address(0), account, amount);\r\n\r\n    }\r\n    //....................................................................\r\n    \r\n    //.........................assignment 3b: part:2.......................\r\n    modifier transferAfterMonth(){\r\n        uint256 transferOn = 3629543 +  mintedOn ; \r\n        require(block.timestamp > transferOn && mintedOn > 0,\"ERROR: Wait: Transfer date not reached  \");\r\n        _;\r\n    }  \r\n    \r\n    address[] tempEmployeeSalaryArr;\r\n    mapping(address => uint256) temporaryStay; // it will hold balances for 30 days\r\n    \r\n    // issueSalary function will issue Salary to the employee but will not credit to his account. the salary will \r\n    // stay in a mapping for a specified time before being credited to the specific account\r\n    \r\n     function issueSalary(address recepint, uint256 amount)public  returns(bool){\r\n        require(balances[msg.sender] >= amount, \"you dont have enogh toekns\");\r\n        require(msg.sender != address(0) && recepint != address(0));\r\n        require(amount > 0, \"Toeken should be greater than 0\");\r\n        balances[msg.sender] -= amount; \r\n        temporaryStay[recepint] += amount;\r\n        tempEmployeeSalaryArr.push(recepint);\r\n        return true;\r\n    }\r\n    \r\n    // creditSalary will credit the salary to the account of employee after one month.\r\n    function creditSalary() public  transferAfterMonth() returns(bool){\r\n        for(uint i=0; i < tempEmployeeSalaryArr.length; i++){\r\n        balances[tempEmployeeSalaryArr[i]] += temporaryStay[tempEmployeeSalaryArr[i]];\r\n        }\r\n        return true;\r\n        \r\n        \r\n    }\r\n    \r\n    //........................................................................\r\n    \r\n    \r\n    function totalSupply() external override view returns(uint256) {\r\n        return Supply;\r\n    }\r\n    \r\n    function balanceOf(address account) external override view returns(uint256) {\r\n        return balances[account];\r\n    }\r\n    \r\n    function purchaseTokens() public payable  {\r\n        require(msg.sender != owner1, \"Owner cannot purchase tokens\");\r\n        require(msg.value >= 1 ether, \"Value should be in ethers\");\r\n        require(msg.sender != address(0));\r\n        balances[msg.sender] += (msg.value / (10**18)) * priceToken; //1 ether = 100 tokens\r\n        balances[owner1] -= (msg.value / (10 **18)) * priceToken;\r\n    }\r\n    \r\n    function adjustTokenPrice(uint newPrice) public {\r\n        priceToken = newPrice; //1 ether = new price of tokens\r\n    }\r\n    \r\n    function transfer(address recepint, uint256 amount) public override returns(bool) {\r\n        require(balances[msg.sender] >= amount, \"you dont have enogh toekns\");\r\n        require(msg.sender != address(0) && recepint != address(0));\r\n        require(amount > 0, \"Toeken should be greater than 0\");\r\n        balances[msg.sender] -= amount;\r\n        balances[recepint] += amount;\r\n        emit Transfer(msg.sender, recepint, amount);\r\n        return true;\r\n    }\r\n    \r\n    function approve(address spender, uint256 amount) public override returns(bool) {\r\n        require(msg.sender != address(0) && spender != address(0));\r\n        require(amount > 0, \"Toeken should be greater than 0\");\r\n        allowed[msg.sender][spender] += amount;\r\n        emit Approval(msg.sender, spender, amount);\r\n        return true;\r\n    }\r\n    function allowance(address approver, address spender) public override view returns(uint256) {\r\n        return allowed[approver][spender];\r\n    }\r\n    function transferFrom(address from, address to, uint amount) public override returns(bool) {\r\n        require(amount <= balances[from] && amount <= allowed[from][msg.sender], \"balance Low or not approved\");\r\n        require(from != address(0) && to != address(0));\r\n        require(amount > 0, \"Toeken should be greater than 0\");\r\n        balances[to] += amount;\r\n        balances[from] -= amount;\r\n        allowed[from][msg.sender] -=amount;\r\n        emit Transfer(from, to, amount);\r\n        return true;\r\n    }\r\n    fallback() external payable {\r\n        purchaseTokens();\r\n    }\r\n    receive() external payable{\r\n        \r\n    }\r\n    \r\n    //................................assignment 3c: Part 1-4 .......................................\r\n    address private Delegated;\r\n    uint256 private TokenConversion = 100;\r\n   \r\n    modifier OnlyOwner(address _Sender){\r\n        require (owner1 == _Sender);\r\n        _;\r\n    }\r\n    \r\n    modifier OwnerDelegated(address _Address){\r\n        require (owner1 == _Address || Delegated == _Address);\r\n        _;\r\n    }\r\n    \r\n    function ChangeConversion (uint256 _Rate) public OwnerDelegated(msg.sender){\r\n       \r\n        require(_Rate > 0, \"Must enter some value\");\r\n        \r\n        TokenConversion = _Rate;\r\n    }\r\n    \r\n    function TransferOwnership(address NextOwner) public OnlyOwner(msg.sender){\r\n        require(NextOwner != address(0), \"Wrong address\");\r\n        uint256 RemainingTokens = balances[owner1];\r\n        balances[NextOwner] += RemainingTokens;\r\n        balances[owner1] -= RemainingTokens;\r\n        owner1 = NextOwner;\r\n    }\r\n    \r\n    function DelegatePower(address _Delegate) public OnlyOwner(msg.sender){\r\n        require (_Delegate != address(0), \"Invalid address\");\r\n        Delegated = _Delegate;\r\n    }\r\n    \r\n    function ReturnTokens(uint256 _Tokens) public payable returns(uint256){\r\n        require (balances[msg.sender] >= _Tokens, \"You have no balance tokens in your account\");\r\n        \r\n        uint256 eth = (_Tokens/TokenConversion)*(10**18);\r\n        balances[owner1] += _Tokens;\r\n        balances[msg.sender] -= _Tokens;\r\n        payable(msg.sender).transfer(eth);\r\n        \r\n        emit _Transfer(msg.sender, eth);\r\n        \r\n        return eth;\r\n        \r\n    }\r\n   \r\n    //...............................................................................................\r\n}",
  "sourcePath": "D:\\Truffle\\Assignment3abc\\contracts\\Assignment3abc.sol",
  "compiler": {
    "name": "solc",
    "version": "0.8.0+commit.c7dfd78e.Emscripten.clang"
  },
  "schemaVersion": "3.4.3",
  "updatedAt": "2021-09-02T14:38:58.930Z",
  "networkType": "ethereum",
  "devdoc": {
    "kind": "dev",
    "methods": {},
    "version": 1
  },
  "userdoc": {
    "kind": "user",
    "methods": {},
    "version": 1
  }
}